:020000040800F2
:1000000000000220F1050008390600083906000842
:10001000390600083906000839060008000000000B
:100020000000000000000000000000003906000889
:1000300039060008000000003906000839060008EB
:100040003906000839060008390600083906000894
:100050003906000839060008390600083906000884
:100060003906000839060008390600083906000874
:100070003906000839060008390600083906000864
:100080003906000839060008390600083906000854
:100090003906000839060008390600083906000844
:1000A0003906000839060008390600083906000834
:1000B0003906000839060008390600083906000824
:1000C0003906000839060008390600083906000814
:1000D0003906000839060008390600083906000804
:1000E00039060008390600083906000839060008F4
:1000F00039060008390600083906000839060008E4
:1001000039060008390600083906000839060008D3
:1001100039060008390600083906000839060008C3
:1001200039060008390600083906000839060008B3
:1001300039060008390600083906000839060008A3
:100140003906000839060008390600083906000893
:100150003906000839060008390600083906000883
:100160003906000839060008390600083906000873
:100170003906000839060008390600083906000863
:080180003906000839060008E9
:1001880010B5054C237833B9044B13B10448AFF3C9
:1001980000800123237010BD4804002000000000E7
:1001A80028090008084B10B51BB108480849AFF3E7
:1001B80000800848036803B910BD074B002BFBD02B
:1001C800BDE81040184700BF0000000028090008DB
:1001D8004C0400204404002000000000154B002BB4
:1001E80008BF134B9D46A3F5803A00218B460F4666
:1001F8001348144A121A00F055FA0F4B002B00D07E
:1002080098470E4B002B00D098470020002104008F
:100218000D000D48002802D00C4800F005FB00F046
:1002280019FA2000290000F0ADF900F003FA00BF28
:1002380000000800000000000000000000000000AE
:100248004804002064040020310800083D08000824
:10025800394B3A481A68002142F001021A60996045
:100268001A6822F0847222F480321A6058601A6880
:1002780082B022F480221A60D960009101911A6834
:1002880042F480321A601A4603E0009BB3F5A06F6F
:1002980009D0136803F400330193009B01330093E2
:1002A800019B002BF1D0244B1B6813F4003318BFBB
:1002B80001230193019B012B0BD0214BD3F88820FC
:1002C8004FF0006142F47002C3F88820996002B0D0
:1002D8007047194B1B491A6C1B4842F080521A642C
:1002E8000A6842F480420A609A689A609A6842F4FE
:1002F80000429A609A6842F4A0529A6058601A685C
:1003080042F080721A601A4611680B4B8901FBD5BE
:100318000E4A40F2056111609A6822F003029A6061
:100328009A6842F002029A601A46936803F00C0336
:10033800082BFAD1C1E700BF003802401030002472
:1003480000ED00E00070004008544007003C024007
:100358001848836803F00C03042B28D0082B09D015
:10036800154B144A15499268C2F303128A5CD340AC
:100378000B6170474368416813F4800F436818BFE6
:100388000F4801F03F020CBF0B49B0FBF2F1C3F379
:10039800881308BFB1FBF2F101FB03F2054B5B6860
:1003A800C3F3014301335B00B2FBF3F3D9E7044B1A
:1003B800D7E700BF003802400024F4000400002002
:1003C80000127A001A491B4A0B6CF0B443F004037C
:1003D80053274FF47A76842500240B641785D66258
:1003E80015809480938A9BB243F00103938213880B
:1003F8009BB243F001031380114650B1138ADB0707
:10040800FCD50B8A23F001031B041B0C01380B825B
:10041800F4D10849064A0B8823F001031B041B0C7E
:100428000B80136C23F004031364F0BC704700BF07
:10043800003802400008004070B4194C194A236C77
:10044800002143F004035426842523641185D662D1
:1004580015809180938A9BB243F00103938213889D
:100468009BB243F001031380114650B1138ADB0796
:10047800FCD50B8A23F001031B041B0C01380B82EB
:10048800F4D10849064A0B8823F001031B041B0C0E
:100498000B80136C23F00403136470BC704700BF17
:1004A800003802400008004030B4164C164A236C4D
:1004B800002143F00403842523641185D06215804C
:1004C8009180938A9BB243F00103938213889BB275
:1004D80043F001031380138A0B49DB07FBD50B8A12
:1004E800084A23F001031B041B0C0B820B8823F022
:1004F80001031B041B0C0B80136C23F0040313640F
:1005080030BC704700380240000800400E48026CBA
:100518004FF0804370B442F0010253264FF0FF358C
:100528008424002102641E85DD621C809980596242
:100538009A8A92B242F001029A821A8892B242F0E2
:1005480001021A8070BC7047003802404FF08042A8
:100558000649138823F001031B041B0C1380506AFF
:100568000B6C23F001030B64704700BF0038024096
:100578005809000800000020440400204804002016
:1005880064040020F0B5154F154B3E6B1868596888
:100598009A68DB68134D85B046F008066C460FC4B0
:1005A8003E632B68002443F0AA432B606C60AB6861
:1005B80043F07F43AB606B6923F470436B61642045
:1005C800FFF700FF04AB03EB44030134E4B2082C4B
:1005D80033F8103C6B6108BF0024F0E70038024094
:1005E80010090008000C0240002103E00B4B5B5887
:1005F800435004310A480B4B42189A42F6D30A4A30
:1006080002E0002342F8043B084B9A42F9D3FFF773
:100618001FFE00F01FF8FFF7B5FF704758090008E4
:100628000000002044040020480400206404002046
:10063800FEE7000008B50021044600F08BF8044BE3
:100648001868C36B03B19847204600F077F900BFDC
:100658002409000870B50F4E0F4D761BB61018BF51
:10066800002405D0013455F8043B9847A642F9D137
:100678000A4E0B4D761B00F055F9B61018BF002432
:1006880006D0013455F8043B9847A642F9D170BD0D
:1006980070BD00BF4C0900084C0900085409000847
:1006A8004C09000870B4840746D0541E002A41D073
:1006B800CDB2034602E0621EE4B3144603F8015BC0
:1006C8009A07F8D1032C2ED9CDB245EA05250F2C6F
:1006D80045EA054519D903F110022646103E0F2EAA
:1006E80042F8105C42F80C5C42F8085C42F8045C82
:1006F80002F11002F2D8A4F1100222F00F0204F065
:100708000F041032032C13440DD91E462246043A16
:10071800032A46F8045BFAD8221F22F003020432A7
:10072800134404F003042CB1C9B21C4403F8011BA0
:10073800A342FBD170BC704714460346C2E700BF12
:10074800024B13B1024800F06FB870470000000078
:100758003D0800082DE9F04F314B83B01B6800932A
:1007680003F5A47381460E460193009BD3F84871A4
:1007780027B3DDF804A07C68651E0ED4013407EBAE
:1007880084044FF00008E6B1D4F80031B34218D021
:10079800013D6B1CA4F10404F5D1224B73B17B68B5
:1007A800002B36D13B68002B34D03846CAF80030CD
:1007B800AFF30080DAF80070002FDCD103B0BDE899
:1007C800F08F7B682268013BAB420CBF7D60C4F8A8
:1007D8000080002ADCD0D7F88831D7F804B001218E
:1007E800A940194208D190477B685B45BDD1DAF82A
:1007F8000030BB42CCD0B8E7D7F88C31194204D1CD
:100808004846D4F880109047EEE7D4F88000904727
:10081800EAE73B68BA461F46002FACD1CEE700BFD7
:100828002409000800000000014600200246034693
:1008380000F016B838B5084B084DED1AAC1018BFC3
:10084800ED1805D0013C55F8043D9847002CF9D126
:10085800BDE8384000F06CB8540900085809000891
:100868002DE9F047254C2568D5F8484106468846C5
:1008780092469946CCB360681F2818DC431C7EB1A9
:1008880004EB80050121C5F888A0D4F8887101FA25
:1008980000F21743022EC4F88871C5F808911ED0DB
:1008A8000230636044F820800020BDE8F087144BD4
:1008B80003B34FF4C870AFF300800446D0B1D5F845
:1008C8004831002780E88800C5F8484138460123A8
:1008D800C4F88871C4F88C71002EE1D0D0E7D4F840
:1008E8008C110A43C4F88C21DAE705F5A674C5F81B
:1008F8004841C0E74FF0FF30BDE8F0872409000801
:1009080000000000FEE700BF00F000E000C000802B
:1009180000000010003000704300000018000020A4
:1009280000000000F8B500BFF8BC08BC9E46704740
:0C093800F8B500BFF8BC08BC9E46704734
:08094400A0F8FF7F0100000094
:08094C0049070008AD01000895
:04095400890100080D
:100958000000000000000000000000000102030485
:1009680006070809007A030A0000000004030020B3
:100978006C030020D40300200000000000000000E9
:10098800000000000000000000000000000000005F
:10099800000000000000000000000000200900081E
:1009A800000000000000000000000000000000003F
:1009B800000000000000000000000000000000002F
:1009C800000000000000000000000000000000001F
:1009D800000000000000000000000000000000000F
:1009E80000000000000000000000000000000000FF
:1009F80000000000000000000000000000000000EF
:100A080000000000000000000000000000000000DE
:100A180001000000000000000E33CDAB34126DE67B
:100A2800ECDE05000B0000000000000000000000E4
:100A380000000000000000000000000000000000AE
:100A4800000000000000000000000000000000009E
:100A5800000000000000000000000000000000008E
:100A6800000000000000000000000000000000007E
:040D9800180000201F
:040D9C000000000053
:04000005080005F1F9
:00000001FF
