:020000040800F2
:1000000000000220690C0008B10C0008B10C0008C7
:10001000B10C0008B10C0008B10C00080000000091
:10002000000000000000000000000000B10C00080B
:10003000B10C000800000000B10C0008B10C000871
:10004000B10C0008B10C0008B10C0008B10C00089C
:10005000B10C0008B10C0008B10C0008B10C00088C
:10006000B10C0008B10C0008B10C0008B10C00087C
:10007000B10C0008B10C0008B10C0008B10C00086C
:10008000B10C0008B10C0008B10C0008B10C00085C
:10009000B10C0008B10C0008B10C0008B10C00084C
:1000A000B10C0008B10C0008B10C0008B10C00083C
:1000B000B10C0008B10C0008B10C0008B10C00082C
:1000C000B10C0008B10C0008B10C0008B10C00081C
:1000D000B10C0008B10C0008B10C0008B10C00080C
:1000E000B10C0008B10C0008B10C0008B10C0008FC
:1000F000B10C0008B10C0008B10C0008B10C0008EC
:10010000B10C0008B10C0008B10C0008B10C0008DB
:10011000B10C0008B10C0008B10C0008B10C0008CB
:10012000B10C0008B10C0008B10C0008B10C0008BB
:10013000B10C0008B10C0008B10C0008B10C0008AB
:10014000B10C0008B10C0008B10C0008B10C00089B
:10015000B10C0008B10C0008B10C0008B10C00088B
:10016000B10C0008B10C0008B10C0008B10C00087B
:10017000B10C0008B10C0008B10C0008B10C00086B
:08018000B10C0008B10C0008ED
:1001880010B5054C237833B9044B13B10448AFF3C9
:1001980000800123237010BD4804002000000000E7
:1001A800A00F0008084B10B51BB108480849AFF369
:1001B80000800848036803B910BD074B002BFBD02B
:1001C800BDE81040184700BF00000000A00F00085D
:1001D8004C0400204404002000000000154B002BB4
:1001E80008BF134B9D46A3F5803A00218B460F4666
:1001F8001348144A121A00F091FD0F4B002B00D03F
:1002080098470E4B002B00D098470020002104008F
:100218000D000D48002802D00C4800F041FE00F007
:1002280055FD2000290000F0F3FC00F03FFD00BF61
:1002380000000800000000000000000000000000AE
:100248004804002064040020A90E0008B50E000828
:10025800394B3A481A68002142F001021A60996045
:100268001A6822F0847222F480321A6058601A6880
:1002780082B022F480221A60D960009101911A6834
:1002880042F480321A601A4603E0009BB3F5A06F6F
:1002980009D0136803F400330193009B01330093E2
:1002A800019B002BF1D0244B1B6813F4003318BFBB
:1002B80001230193019B012B0BD0214BD3F88820FC
:1002C8004FF0006142F47002C3F88820996002B0D0
:1002D8007047194B1B491A6C1B4842F080521A642C
:1002E8000A6842F480420A609A689A609A6842F4FE
:1002F80000429A609A6842F4A0529A6058601A685C
:1003080042F080721A601A4611680B4B8901FBD5BE
:100318000E4A40F2056111609A6822F003029A6061
:100328009A6842F002029A601A46936803F00C0336
:10033800082BFAD1C1E700BF003802401030002472
:1003480000ED00E00070004008544007003C024007
:100358001848836803F00C03042B28D0082B09D015
:10036800154B144A15499268C2F303128A5CD340AC
:100378000B6170474368416813F4800F436818BFE6
:100388000F4801F03F020CBF0B49B0FBF2F1C3F379
:10039800881308BFB1FBF2F101FB03F2054B5B6860
:1003A800C3F3014301335B00B2FBF3F3D9E7044B1A
:1003B800D7E700BF003802400024F4000400002002
:1003C80000127A001A491B4A0B6CF0B443F004037C
:1003D80053274FF47A76842500240B641785D66258
:1003E80015809480938A9BB243F00103938213880B
:1003F8009BB243F001031380114650B1138ADB0707
:10040800FCD50B8A23F001031B041B0C01380B825B
:10041800F4D10849064A0B8823F001031B041B0C7E
:100428000B80136C23F004031364F0BC704700BF07
:10043800003802400008004070B4194C194A236C77
:10044800002143F004035426842523641185D662D1
:1004580015809180938A9BB243F00103938213889D
:100468009BB243F001031380114650B1138ADB0796
:10047800FCD50B8A23F001031B041B0C01380B82EB
:10048800F4D10849064A0B8823F001031B041B0C0E
:100498000B80136C23F00403136470BC704700BF17
:1004A800003802400008004030B4164C164A236C4D
:1004B800002143F00403842523641185D06215804C
:1004C8009180938A9BB243F00103938213889BB275
:1004D80043F001031380138A0B49DB07FBD50B8A12
:1004E800084A23F001031B041B0C0B820B8823F022
:1004F80001031B041B0C0B80136C23F0040313640F
:1005080030BC704700380240000800400E48026CBA
:100518004FF0804370B442F0010253264FF0FF358C
:100528008424002102641E85DD621C809980596242
:100538009A8A92B242F001029A821A8892B242F0E2
:1005480001021A8070BC7047003802404FF08042A8
:100558000649138823F001031B041B0C1380506AFF
:100568000B6C23F001030B64704700BF0038024096
:10057800114A124B116B41F0010110B41163116C57
:100588000F4C41F4003111641A6842F0A0021A605D
:100598001A6A42F4EE421A629A6842F020029A609D
:1005A8009A6880B242F0800242F208019A60208183
:1005B800A1815DF8044B70470038024000000240FA
:1005C8000044004003490B88024A5B06FBD580B211
:1005D80090807047004400400D4A70B4441E00F2F9
:1005E800FF350D26104614F8011F49B113885B0624
:1005F800FCD589B2818023780A2B03D0AC42F2D192
:1006080070BC704713885B06FCD58680F6E700BF90
:10061800004400400FB42DE9F0418CB012AB53F800
:10062800046B01933278BAB1754C002327461D46F6
:1006380031464FF00D08252A19D023885806FCD5D5
:1006480092B2BA800B780A2B0BD00135ADB22B468B
:10065800725D7119002AEED10CB0BDE8F04104B00A
:10066800704723885B06FCD5A7F80480EDE7334480
:100678005A78002AE9D0623A162A79D8DFE802F0D7
:100688005C6E4C7828787878787878787878787884
:10069800781F787878780C009B78622B7ED0682B4E
:1006A80000F08B80772B019B00F09C801A1D013D88
:1006B8001B680192ADB200934FF400604BE0019BC0
:1006C8001A1D18680192FFF787FF0135ADB2BCE724
:1006D800019B073323F00703D3E900010833420FD6
:1006E80021F0784E0028019342EACE0371F100020E
:1006F800B8BF43F00043002001F08041009350EA66
:10070800010338D14FF4807002AA694600F0BAF8A4
:1007180002A8FFF761FFD8E79B78622B30D0682BDF
:1007280053D0772B019B64D01A1D013D1B680192A1
:10073800ADB2009320200EE09B78622B27D0682B67
:1007480034D0772B019B47D01A1D013D1B680192BD
:10075800ADB2009304200135ADB2D5E7019B191D58
:100768001A78019123885B06FCD593B2BB80ACE76D
:1007780000230093A9E7009B43F080430093C1E75F
:10078800019B1A1D1B68019200930820E3E7019B57
:100798001A1D1B68019200930120DCE7019B1A1DBA
:1007A8001B68019200934FF40070D4E7019B1A1D57
:1007B8001B68019200930220CDE7019B1A1D1B685C
:1007C800019200934FF48060C5E7019B1A1D1B68D6
:1007D800019200931020BEE71A1D1B680192009336
:1007E8000420B8E71A1D1B68019200934FF40060BB
:1007F800B1E71A1D1B68019200932020ABE700BFE8
:1008080000440040F0B40D4A0D4F00F10A053026AF
:10081800914205F8016D08D3312400E01C46891A7D
:10082800631C9142DBB2F9D22C70A7FB02328542DD
:100838004FEAD202ECD1F0BC704700BF00CA9A3B25
:10084800CDCCCCCC70B40B88002509302C46ADB982
:100858000678302E0FD0D6540B8801339BB20B800C
:1008680001250134E4B20A2C00F1FF30EFD1002158
:10087800D15470BC7047092CF3D1ECE70578D554F6
:10088800EAE700BF2DE9F04784B000231028154699
:100898001370ADF8023000F0548124D9B0F5007F10
:1008A8004FD040F28280B0F5806F64D0B0F5006F11
:1008B80016D11A4601240B6800E004461B0F092BC9
:1008C80003F130008ABF3733A854AB54601C0B685F
:1008D80080B21B0109280B602246EED100232B723F
:1008E80004B0BDE8F087022800F0148117D9042865
:1008F80040F024810B6805F1200030243126002BBC
:10090800B4BF167014700B6801325B0082420B6032
:10091800F5D1002385F8203004B0BDE8F087012820
:10092800DED10B6805F10800302631241F064CBFC4
:10093800147016700B6801325B0082420B60F5D1AF
:10094800CCE71A460B680124C3F30313092BD8B26A
:1009580000F1300386BF3730A854AB54601C0B68D5
:1009680080B21B0103280B6040F0D1800023AB70DC
:1009780004B0BDE8F0871A460B681446C3F3033386
:10098800092BD8B200F130038ABF37302B552855D0
:1009980001320B6892B21B01042A14460B60EDD198
:1009A80000232B7104B0BDE8F087202800F0C9802F
:1009B800B0F5807F94D191ED007AB5EEC07AF1EE72
:1009C80010FA00F1FA80F7EE007AB4EEE77AF1EE69
:1009D80010FA00F1DC8040F301810023B2EE046AD2
:1009E80067EE867A0133B4EEE77AF1EE10FA9BB23D
:1009F800F2EE046AF4DCC7EEA67A5C1EA4B24FF0ED
:100A080020080DF10E077949DFF8ECC1384601AE30
:100A18004FF0300EC7EE277A9FED757AFCEEE76A45
:100A280016EE902AF8EE666A77EEE67A67EE877A2F
:100A3800FCEEE77A17EE90AA914200F801ED0BD888
:100A48004FF0310900E09946521A09F101038A4230
:100A5800DBB2F8D280F80090ACFB0131B0424FEA2B
:100A6800D101E9D10DF10209494630462A46FFF77E
:100A7800E9FE5E4ADFF880E139463020524501F848
:100A8800010D0CD84FF0310C00E09C46C2EB0A0A6D
:100A98000CF101039245DBB2F7D281F800C0AEFB3E
:100AA80002328E424FEAD202E8D12E2349462A4624
:100AB80030468DF80730FFF7C5FEBDF80220531CFD
:100AC80065219BB2B8F12D0FA954ADF8023058D06A
:100AD800464ADFF824E13020A24207F8010D08D881
:100AE800312100E01946A41A4B1C9442DBB2F9D21A
:100AF8003970AEFB0232BE424FEAD202ECD1304628
:100B080049462A46FFF79EFE04B0BDE8F087224614
:100B1800044619E70B6805F11000302631241B0440
:100B28004CBF147016700B6801325B0082420B6078
:100B3800F5D100232B7404B0BDE8F08708287FF4B2
:100B4800CFAE0A68002A40DB2849DFF8ACE001AEE6
:100B58000DF10E043027914204F8017D08D83120A8
:100B680000E01846521A431C8A42DBB2F9D22070C0
:100B7800AEFB0131B4424FEAD101ECD10DF10209CB
:100B8800BDE7023205F80380ADF80220A0E7DFEDEB
:100B9800197AB4EEE77AF1EE10FA24D5F0EE676A26
:100BA800012467EEA67A0134B4EEE77AF1EE10FA82
:100BB800A4B2F6D44FF02D0823E72D220123B1EE7D
:100BC800477A2A70ADF80230FDE62D232B700A68AB
:100BD800012352420A60ADF80230B5E74FF6FF74C0
:100BE800DFED047A0BE70124E4E700BF00CA9A3B73
:100BF80000007A44CDCCCC3DCDCCCCCCD00F000875
:100C08000000002044040020480400206404002060
:100C180038B541F21710FFF7ABFC0E4A0E4D136BB7
:100C280043F0080313632B6843F080732B60AB68B1
:100C380043F00073AB60002421460848FFF7EAFC44
:100C48006B6983F480536B61FA200134FFF7BAFBB8
:100C5800F2E700BF00380240000C0240880F00088D
:100C6800002103E00B4B5B58435004310A480B4BFF
:100C780042189A42F6D30A4A02E0002342F8043B9B
:100C8800084B9A42F9D3FFF7E3FA00F01FF8FFF791
:100C9800BFFF7047D00F0008000000204404002068
:100CA8004804002064040020FEE7000008B5002185
:100CB800044600F08BF8044B1868C36B03B19847DF
:100CC800204600F077F900BF9C0F000870B50F4E62
:100CD8000F4D761BB61018BF002405D0013455F807
:100CE800043B9847A642F9D10A4E0B4D761B00F0FB
:100CF80055F9B61018BF002406D0013455F8043B46
:100D08009847A642F9D170BD70BD00BFC40F000856
:100D1800C40F0008CC0F0008C40F000870B4840783
:100D280046D0541E002A41D0CDB2034602E0621ECE
:100D3800E4B3144603F8015B9A07F8D1032C2ED9C3
:100D4800CDB245EA05250F2C45EA054519D903F129
:100D580010022646103E0F2E42F8105C42F80C5C3A
:100D680042F8085C42F8045C02F11002F2D8A4F1DF
:100D7800100222F00F0204F00F041032032C134467
:100D88000DD91E462246043A032A46F8045BFAD8CF
:100D9800221F22F003020432134404F003042CB18E
:100DA800C9B21C4403F8011BA342FBD170BC7047B5
:100DB80014460346C2E700BF024B13B1024800F0D5
:100DC8006FB8704700000000B50E00082DE9F04F1D
:100DD800314B83B01B68009303F5A47381460E461C
:100DE8000193009BD3F8487127B3DDF804A07C6811
:100DF800651E0ED4013407EB84044FF00008E6B1F9
:100E0800D4F80031B34218D0013D6B1CA4F104049E
:100E1800F5D1224B73B17B68002B36D13B68002B90
:100E280034D03846CAF80030AFF30080DAF80070E2
:100E3800002FDCD103B0BDE8F08F7B682268013B4E
:100E4800AB420CBF7D60C4F80080002ADCD0D7F824
:100E58008831D7F804B00121A940194208D1904738
:100E68007B685B45BDD1DAF80030BB42CCD0B8E72F
:100E7800D7F88C31194204D14846D4F880109047ED
:100E8800EEE7D4F880009047EAE73B68BA461F4689
:100E9800002FACD1CEE700BF9C0F00080000000077
:100EA800014600200246034600F016B838B5084B44
:100EB800084DED1AAC1018BFED1805D0013C55F8D7
:100EC800043D9847002CF9D1BDE8384000F06CB8D3
:100ED800CC0F0008D00F00082DE9F047254C2568F5
:100EE800D5F848410646884692469946CCB360688C
:100EF8001F2818DC431C7EB104EB80050121C5F8CE
:100F080088A0D4F8887101FA00F21743022EC4F8B9
:100F18008871C5F808911ED00230636044F82080BB
:100F28000020BDE8F087144B03B34FF4C870AFF34B
:100F380000800446D0B1D5F84831002780E8880001
:100F4800C5F8484138460123C4F88871C4F88C7143
:100F5800002EE1D0D0E7D4F88C110A43C4F88C21D4
:100F6800DAE705F5A674C5F84841C0E74FF0FF3049
:100F7800BDE8F0879C0F000800000000FEE700BFF6
:100F88002D3E20434E543A205B25645D0A00000044
:100F9800430000001800002000000000F8B500BF62
:100FA800F8BC08BC9E467047F8B500BFF8BC08BC42
:040FB8009E4670479A
:080FBC0028F2FF7F0100000094
:080FC400C10D0008AD01000899
:040FCC00890100088F
:100FD0000000000000000000000000000102030407
:100FE00006070809007A030A000000000403002035
:100FF0006C030020D403002000000000000000006B
:1010000000000000000000000000000000000000E0
:10101000000000000000000000000000980F000821
:1010200000000000000000000000000000000000C0
:1010300000000000000000000000000000000000B0
:1010400000000000000000000000000000000000A0
:101050000000000000000000000000000000000090
:101060000000000000000000000000000000000080
:101070000000000000000000000000000000000070
:101080000000000000000000000000000000000060
:1010900001000000000000000E33CDAB34126DE6FD
:1010A000ECDE05000B000000000000000000000066
:1010B0000000000000000000000000000000000030
:1010C0000000000000000000000000000000000020
:1010D0000000000000000000000000000000000010
:1010E0000000000000000000000000000000000000
:0414100018000020A0
:0414140000000000D4
:0400000508000C697A
:00000001FF
