:020000040800F2
:100000000000022059050008A1050008A10500080C
:10001000A1050008A1050008A105000800000000D6
:10002000000000000000000000000000A105000822
:10003000A105000800000000A1050008A1050008B6
:10004000A1050008A1050008A1050008A1050008F8
:10005000A1050008A1050008A1050008A1050008E8
:10006000A1050008A1050008A1050008A1050008D8
:10007000A1050008A1050008A1050008A1050008C8
:10008000A1050008A1050008A1050008A1050008B8
:10009000A1050008A1050008A1050008A1050008A8
:1000A000A1050008A1050008A1050008A105000898
:1000B000A1050008A1050008A1050008A105000888
:1000C000A1050008A1050008A1050008A105000878
:1000D000A1050008A1050008A1050008A105000868
:1000E000A1050008A1050008A1050008A105000858
:1000F000A1050008A1050008A1050008A105000848
:10010000A1050008A1050008A1050008A105000837
:10011000A1050008A1050008A1050008A105000827
:10012000A1050008A1050008A1050008A105000817
:10013000A1050008A1050008A1050008A105000807
:10014000A1050008A1050008A1050008A1050008F7
:10015000A1050008A1050008A1050008A1050008E7
:10016000A1050008A1050008A1050008A1050008D7
:10017000A1050008A1050008A1050008A1050008C7
:08018000A1050008A10500081B
:1001880010B5054C237833B9044B13B10448AFF3C9
:1001980000800123237010BD4804002000000000E7
:1001A80090080008084B10B51BB108480849AFF380
:1001B80000800848036803B910BD074B002BFBD02B
:1001C800BDE81040184700BF000000009008000874
:1001D8004C0400204404002000000000154B002BB4
:1001E80008BF134B9D46A3F5803A00218B460F4666
:1001F8001348144A121A00F009FA0F4B002B00D0CA
:1002080098470E4B002B00D098470020002104008F
:100218000D000D48002802D00C4800F0B9FA00F093
:10022800CDF92000290000F013F800F0B7F900BF5D
:1002380000000800000000000000000000000000AE
:10024800480400206404002099070008A507000856
:1002580090B587B000AF1D4B3C1D186859689A6867
:10026800DB680FC40023FB75194A194B1B6B43F05D
:1002780008031363174A174B1B6843F0AA4313601C
:10028800144B00225A60134A124B9B6843F07F4379
:100298009360104A0F4B5B6923F4704353610D4A16
:1002A800FB7D5B0007F118010B4433F8143C5361E4
:1002B8004FF47A7000F03AF9FB7D0133FB75FB7D52
:1002C800082B01D10023FB75E9E700BF7808000877
:1002D80000380240000C024080B500AF154A154BAB
:1002E8001B6843F001031360124B00229A60114A05
:1002F800104B1B6823F0847323F4803313600D4B79
:100308000D4A5A600B4A0B4B1B6823F48023136079
:10031800084B0022DA6000F08FF8084A074BD3F840
:10032800883043F47003C2F88830044B4FF0006201
:100338009A6080BD003802401030002400ED00E0D3
:1003480080B487B000AF00233B6100237B610223A8
:10035800FB600023BB6002237B60324B9B6803F089
:100368000C033B613B69042B07D0082B09D0002BF9
:100378003FD12D4B2D4A1A603FE02B4B2C4A1A6077
:100388003BE0284B5B6803F480039B0DBB60254B67
:100398005B6803F03F037B60BB68002B0DD0244AE9
:1003A8007B68B2FBF3F21F4B596847F6C0730B40EA
:1003B8009B0903FB02F37B610CE01C4A7B68B2FBE0
:1003C800F3F2184B596847F6C0730B409B0903FBBF
:1003D80002F37B61134B5B6803F440331B0C01335E
:1003E8005B00FB607A69FB68B2FBF3F30E4A1360AB
:1003F80003E00D4B0D4A1A6000BF0A4B9B6803F0DF
:10040800F0031B090B4AD35CDBB23B61064B1A684D
:100418003B6922FA03F3044A13601C37BD465DF8B2
:10042800047B704700380240040000200024F400D8
:1004380000127A000800002080B483B000AF0023C7
:100448007B6000233B60354A344B1B6843F48033A0
:100458001360324B1B6803F400333B607B68013345
:100468007B603B68002B03D17B68B3F5A06FF0D1AC
:100478002A4B1B6803F40033002B02D001233B6096
:1004880001E000233B603B68012B42D1234A234B08
:100498001B6C43F080531364214A214B1B6843F4BF
:1004A800804313601D4A1D4B9B6893601B4A1B4B7E
:1004B8009B6843F400439360184A184B9B6843F4C5
:1004C800A0539360154B174A5A60144A134B1B6884
:1004D80043F08073136000BF104B1B6803F0007378
:1004E800002BF9D0104B40F205621A600B4A0B4BF7
:1004F8009B6823F003039360084A084B9B6843F00A
:100508000203936000BF054B9B6803F00C03082BA4
:10051800F9D10C37BD465DF8047B704700380240BE
:100528000070004008544007003C02404AF2104264
:100538005043814201DA0131FBE77047C0080008E7
:100548000000002044040020480400206404002027
:10055800002103E00B4B5B58435004310A480B4B16
:1005680042189A42F6D30A4A02E0002342F8043BB2
:10057800084B9A42F9D3FFF7AFFE00F01FF8FFF7D8
:1005880067FE7047C00800080000002044040020EF
:100598004804002064040020FEE7000008B500219C
:1005A800044600F08BF8044B1868C36B03B19847F6
:1005B800204600F077F900BF8C08000870B50F4E90
:1005C8000F4D761BB61018BF002405D0013455F81E
:1005D800043B9847A642F9D10A4E0B4D761B00F012
:1005E80055F9B61018BF002406D0013455F8043B5D
:1005F8009847A642F9D170BD70BD00BFB408000885
:10060800B4080008BC080008B408000870B48407DF
:1006180046D0541E002A41D0CDB2034602E0621EE5
:10062800E4B3144603F8015B9A07F8D1032C2ED9DA
:10063800CDB245EA05250F2C45EA054519D903F140
:1006480010022646103E0F2E42F8105C42F80C5C51
:1006580042F8085C42F8045C02F11002F2D8A4F1F6
:10066800100222F00F0204F00F041032032C13447E
:100678000DD91E462246043A032A46F8045BFAD8E6
:10068800221F22F003020432134404F003042CB1A5
:10069800C9B21C4403F8011BA342FBD170BC7047CC
:1006A80014460346C2E700BF024B13B1024800F0EC
:1006B8006FB8704700000000A50700082DE9F04F4B
:1006C800314B83B01B68009303F5A47381460E4633
:1006D8000193009BD3F8487127B3DDF804A07C6828
:1006E800651E0ED4013407EB84044FF00008E6B110
:1006F800D4F80031B34218D0013D6B1CA4F10404B6
:10070800F5D1224B73B17B68002B36D13B68002BA7
:1007180034D03846CAF80030AFF30080DAF80070F9
:10072800002FDCD103B0BDE8F08F7B682268013B65
:10073800AB420CBF7D60C4F80080002ADCD0D7F83B
:100748008831D7F804B00121A940194208D190474F
:100758007B685B45BDD1DAF80030BB42CCD0B8E746
:10076800D7F88C31194204D14846D4F88010904704
:10077800EEE7D4F880009047EAE73B68BA461F46A0
:10078800002FACD1CEE700BF8C08000800000000A5
:10079800014600200246034600F016B838B5084B5B
:1007A800084DED1AAC1018BFED1805D0013C55F8EE
:1007B800043D9847002CF9D1BDE8384000F06CB8EA
:1007C800BC080008C00800082DE9F047254C25683A
:1007D800D5F848410646884692469946CCB36068A3
:1007E8001F2818DC431C7EB104EB80050121C5F8E5
:1007F80088A0D4F8887101FA00F21743022EC4F8D1
:100808008871C5F808911ED00230636044F82080D2
:100818000020BDE8F087144B03B34FF4C870AFF362
:1008280000800446D0B1D5F84831002780E8880018
:10083800C5F8484138460123C4F88871C4F88C715A
:10084800002EE1D0D0E7D4F88C110A43C4F88C21EB
:10085800DAE705F5A674C5F84841C0E74FF0FF3060
:10086800BDE8F0878C08000800000000FEE700BF24
:1008780000F000E000C000800000001000300070B0
:10088800430000001800002000000000F8B500BF79
:10089800F8BC08BC9E467047F8B500BFF8BC08BC59
:0408A8009E467047B1
:0808AC0038F9FF7F0100000094
:0808B400B1060008AD010008C7
:0408BC0089010008A6
:1008C00000000000007A030A0000000000000000A1
:1008D00001020304060708090000000004030020C9
:1008E0006C030020D4030020000000000000000082
:1008F00000000000000000000000000000000000F8
:10090000000000000000000000000000880800084F
:1009100000000000000000000000000000000000D7
:1009200000000000000000000000000000000000C7
:1009300000000000000000000000000000000000B7
:1009400000000000000000000000000000000000A7
:100950000000000000000000000000000000000097
:100960000000000000000000000000000000000087
:100970000000000000000000000000000000000077
:1009800001000000000000000E33CDAB34126DE614
:10099000ECDE05000B00000000000000000000007D
:1009A0000000000000000000000000000000000047
:1009B0000000000000000000000000000000000037
:1009C0000000000000000000000000000000000027
:1009D0000000000000000000000000000000000017
:040D000018000020B7
:040D040000000000EB
:040000050800055991
:00000001FF
