:020000040800F2
:100000000000022031250008792500087925000824
:1000100079250008792500087925000800000000EE
:10002000000000000000000000000000792500082A
:1000300079250008000000007925000879250008CE
:100040007925000879250008792500087925000818
:100050007925000879250008792500087925000808
:1000600079250008792500087925000879250008F8
:1000700079250008792500087925000879250008E8
:1000800079250008792500087925000879250008D8
:1000900079250008792500087925000879250008C8
:1000A00079250008792500087925000879250008B8
:1000B00079250008792500087925000879250008A8
:1000C0007925000879250008792500087925000898
:1000D0007925000879250008792500087925000888
:1000E0007925000879250008792500087925000878
:1000F0007925000879250008792500087925000868
:100100007925000879250008792500087925000857
:10011000792500087925000879250008F1050008EF
:100120007925000879250008792500087925000837
:100130007925000879250008792500087925000827
:100140007925000879250008792500087925000817
:100150007925000879250008792500087925000807
:1001600079250008792500087925000879250008F7
:1001700079250008792500087925000879250008E7
:0801800079250008792500082B
:1001880010B5054C237833B9044B13B10448AFF3C9
:1001980000800123237010BD4807002000000000E4
:1001A80058280008084B10B51BB108480849AFF398
:1001B80000800848036803B910BD074B002BFBD02B
:1001C800BDE81040184700BF00000000582800088C
:1001D8004C0700204407002000000000154B002BAE
:1001E80008BF134B9D46A3F5803A00218B460F4666
:1001F8001348144A121A02F0F5F90F4B002B00D0DD
:1002080098470E4B002B00D098470020002104008F
:100218000D000D48002802D00C4802F0A5FA02F0A3
:10022800B9F92000290002F0C9F802F0A3F900BFCB
:1002380000000800000000000000000000000000AE
:10024800480700202C180020712700087D27000887
:100258004149424BD1F88820414842F47002C1F824
:1002680088201A68002142F001021A6099601A6811
:1002780022F0847222F480321A6058601A6882B0C0
:1002880022F480221A60D960009101911A6842F420
:1002980080321A601A4603E0009BB3F5A06F09D0BC
:1002A800136803F400330193009B01330093019B0F
:1002B800002BF1D0294B1B6813F4003318BF01231E
:1002C8000193019B012B14D0244A2649936823F4F7
:1002D80000039360C2F88410136843F080631360CE
:1002E80013681B01FCD51C4B4FF000629A6002B0EA
:1002F80070471A4B1C491A6C1C4842F080521A6409
:100308000A6842F480420A609A689A609A6842F4DD
:1003180000429A609A6842F4A0529A6058601A683B
:1003280042F080721A601A4611680C4B8901FBD59D
:100338000F4A40F2056111609A6822F003029A6040
:100348009A6842F002029A601A46936803F00C0316
:10035800082BFAD1B8E700BF00ED00E000380240F2
:1003680010300024804000300070004008544007DE
:10037800003C02401848836803F00C03042B28D083
:10038800082B09D0154B144A15499268C2F3031279
:100398008A5CD3400B6170474368416813F4800F4F
:1003A800436818BF0F4801F03F020CBF0B49B0FB70
:1003B800F2F1C3F3881308BFB1FBF2F101FB03F2BA
:1003C800054B5B68C3F3014301335B00B2FBF3F3F6
:1003D800D9E7044BD7E700BF003802400024F400F7
:1003E8000400002000127A0019491A4A0B6C70B4F4
:1003F80043F0400353264FF47A7584240B64168522
:10040800D5621480938A9BB243F0010393821388C8
:100418009BB243F001031380114650B1138ADB07E6
:10042800FCD50B8A23F001031B041B0C01380B823B
:10043800F4D10849064A0B8823F001031B041B0C5E
:100448000B80136C23F04003136470BC704700BF2B
:1004580000380240001800401849194A0B6C70B463
:1004680043F040030026542584240B641685D56286
:100478001480938A9BB243F00103938213889BB242
:1004880043F001031380114650B1138ADB07FCD5F2
:100498000B8A23F001031B041B0C01380B82F4D1D7
:1004A8000749064A0B8823F001031B041B0C0B8029
:1004B800136C23F04003136470BC7047003802408B
:1004C8000018004070B40948094B026C53264FF0DD
:1004D800FF358424002142F0080202641E85DD6293
:1004E8001C80998070BC5962704700BF0038024078
:1004F800000C0040054A938A9BB243F001039382A3
:1005080013889BB243F0010313807047000C00402E
:10051800044A506A138823F001031B041B0C138040
:10052800704700BF000C00400E48026C4FF080433B
:1005380070B442F0010253264FF0FF3584240021A5
:1005480002641E85DD621C80998059629A8A92B283
:1005580042F001029A821A8892B242F001021A808D
:1005680070BC7047003802404FF08043586A7047AB
:100578004FF080435B6A834205D3084483422CBF13
:10058800002001207047C0431844814294BF0020D6
:1005980001207047F0B4114C114B226C1148002116
:1005A80042F0200253274FF47A76842522641F856F
:1005B800DE621D80998059629A8A92B2012542F0C2
:1005C80001024FF400049A829D8180F83713446039
:1005D8001A8892B22A431A80F0BC70470038024049
:1005E8000014004000E100E0054B1A8AD20705D547
:1005F80004490A68002001320A601882704700BF67
:100608000014004064070020014B1868704700BFC1
:1006180064070020084B1B68834205D308448342C3
:100628002CBF002001207047C0431844814294BF6A
:1006380000200120704700BF64070020704700BFFA
:10064800F0B4224E224B316B224A234D234C2448CE
:1006580041F480013163196821F0010119601968BA
:1006680001F0807119601168166871401160516855
:1006780057684026794051609D60DC6018615E6073
:100688001A6842F000621A601A6842F480221A60FE
:100698001A6842F440321A601A6832431A601A68BB
:1006A80042F480621A601A6842F010021A601A68EE
:1006B80022F4C0421A601A6822F4C0521A601A68FA
:1006C80042F001021A60F0BC704700BF00380240D7
:1006D800B86402400064024004100140E00B0020AE
:1006E8006C0B002010B50446FFF7AAFF1349144B02
:1006F800086B144A40F001000863486C40F0100091
:100708004864196841F420111960596A41F4EE618E
:100718005962996841F4002199609968A4B241F43A
:1007280000110020996014819081938A9BB243F054
:10073800800342F20C019382918110BD003802407F
:1007480000000240001001400FB4F0B58DB012ABAC
:1007580053F8045B01932B78FBB10022144616462C
:1007680004E00134A4B222462B5DB3B1252BF8D1A5
:100778002A445378002BF4D0623B162B6DD8DFE85F
:1007880003F04911396C176C6C6C6C6C6C6C6C6C8C
:100798006C6C6C116C6C6C6C59000DB0BDE8F04061
:1007A80004B07047019B043301930134A4B2D8E725
:1007B800019B073323F00703D3E90001083321F035
:1007C8007847420F002842EAC70201934FF0000021
:1007D80071F1000301F08041B8BF42F0004250EAD5
:1007E800010300923BD14FF48070694602AA00F0E1
:1007F800C3F8DAE79378622B36D0682B52D0772B80
:10080800019B64D01A1D013C1B680192A4B200939D
:1008180020201FE09378622B35D0682B49D0772BA6
:10082800019B5AD01A1D013C1B680192A4B2009387
:1008380004200FE09378622B1DD0682B2AD0772BE9
:10084800019B3DD01A1D013C1B680192A4B2009384
:100858004FF400600134A4B2C7E70096A5E7009BF7
:1008680043F080430093BEE7019B1A1D1B68019269
:1008780000930820EEE7019B1A1D1B680192009364
:100888004FF40070E6E7019B1A1D1B680192009364
:100898000120DFE7019B1A1D1B68019200934FF4AA
:1008A8008060D7E7019B1A1D1B68019200931020F6
:1008B800D0E7019B1A1D1B68019200930220C9E72B
:1008C8001A1D1B68019200934FF40060C2E71A1DBD
:1008D8001B68019200932020BCE71A1D1B68019237
:1008E80000930420B6E700BF704700BF014B98880B
:1008F800C0B2704700440040F0B40D4A0D4F00F1FB
:100908000A053026914205F8016D08D3312400E02C
:100918001C46891A631C9142DBB2F9D22C70A7FBE2
:10092800023285424FEAD202ECD1F0BC704700BFD8
:1009380000CA9A3BCDCCCCCC70B40B8800250930CA
:100948002C46ADB90678302E0FD0D6540B8801331B
:100958009BB20B8001250134E4B20A2C00F1FF3070
:10096800EFD10021D15470BC7047092CF3D1ECE7CA
:100978000578D554EAE700BF2DE9F04784B0002395
:10098800102815461370ADF8023000F0548124D9B0
:10099800B0F5007F4FD040F28280B0F5806F64D010
:1009A800B0F5006F16D11A4601240B6800E0044622
:1009B8001B0F092B03F130008ABF3733A854AB54FF
:1009C800601C0B6880B21B0109280B602246EED11F
:1009D80000232B7204B0BDE8F087022800F01481D0
:1009E80017D9042840F024810B6805F12000302431
:1009F8003126002BB4BF167014700B6801325B00EF
:100A080082420B60F5D1002385F8203004B0BDE8A0
:100A1800F0870128DED10B6805F108003026312463
:100A28001F064CBF147016700B6801325B008242BF
:100A38000B60F5D1CCE71A460B680124C3F3031306
:100A4800092BD8B200F1300386BF3730A854AB5415
:100A5800601C0B6880B21B0103280B6040F0D1803A
:100A68000023AB7004B0BDE8F0871A460B68144643
:100A7800C3F30333092BD8B200F130038ABF3730F0
:100A88002B55285501320B6892B21B01042A1446D3
:100A98000B60EDD100232B7104B0BDE8F08720284E
:100AA80000F0C980B0F5807F94D191ED007AB5EE61
:100AB800C07AF1EE10FA00F1FA80F7EE007AB4EE9F
:100AC800E77AF1EE10FA00F1DC8040F301810023AF
:100AD800B2EE046A67EE867A0133B4EEE77AF1EE95
:100AE80010FA9BB2F2EE046AF4DCC7EEA67A5C1E3A
:100AF800A4B24FF020080DF10E077949DFF8ECC1D8
:100B0800384601AE4FF0300EC7EE277A9FED757A62
:100B1800FCEEE76A16EE902AF8EE666A77EEE67A59
:100B280067EE877AFCEEE77A17EE90AA914200F812
:100B380001ED0BD84FF0310900E09946521A09F13E
:100B480001038A42DBB2F8D280F80090ACFB013195
:100B5800B0424FEAD101E9D10DF1020949463046C8
:100B68002A46FFF7E9FE5E4ADFF880E13946302081
:100B7800524501F8010D0CD84FF0310C00E09C46AD
:100B8800C2EB0A0A0CF101039245DBB2F7D281F8F5
:100B980000C0AEFB02328E424FEAD202E8D12E23C9
:100BA80049462A4630468DF80730FFF7C5FEBDF89E
:100BB8000220531C65219BB2B8F12D0FA954ADF842
:100BC800023058D0464ADFF824E13020A24207F824
:100BD800010D08D8312100E01946A41A4B1C944293
:100BE800DBB2F9D23970AEFB0232BE424FEAD20212
:100BF800ECD1304649462A46FFF79EFE04B0BDE8D0
:100C0800F0872246044619E70B6805F110003026E4
:100C180031241B044CBF147016700B6801325B0042
:100C280082420B60F5D100232B7404B0BDE8F08735
:100C380008287FF4CFAE0A68002A40DB2849DFF88D
:100C4800ACE001AE0DF10E043027914204F8017DAD
:100C580008D8312000E01846521A431C8A42DBB2F9
:100C6800F9D22070AEFB0131B4424FEAD101ECD188
:100C78000DF10209BDE7023205F80380ADF8022044
:100C8800A0E7DFED197AB4EEE77AF1EE10FA24D591
:100C9800F0EE676A012467EEA67A0134B4EEE77ACB
:100CA800F1EE10FAA4B2F6D44FF02D0823E72D2266
:100CB8000123B1EE477A2A70ADF80230FDE62D2304
:100CC8002B700A68012352420A60ADF80230B5E77A
:100CD8004FF6FF74DFED047A0BE70124E4E700BF69
:100CE80000CA9A3B00007A44CDCCCC3DCDCCCCCCCC
:100CF800294A2A492A4B70B4156B2A4C2A4E45F0CA
:100D080002051563156B45F004051563256845F460
:100D1800001525600D6845F080050D60656A45F48D
:100D2800A06565620D6A45F4A0450D62A56845F4A5
:100D38000015A5608C6844F080048C60116C41F447
:100D480080411164116B0002B3FBF0F00530A6FB83
:100D5800003041F48051C3081163D90713D4134BF1
:100D6800C0F30F101884114B1A8C92B242F400721F
:100D78001A849A8892B242F0010240F628319A8089
:100D880070BC99837047013B5B0843F48073A2F5FC
:100D980000329BB21384E6E70038024000080240A4
:100DA800008F423300040240CDCCCCCC0038004048
:100DB8002449254A0B6B43F400130B63136823F093
:100DC8000103136013682049DB07FBD4F0B51F4803
:100DD800D1F800E01E4A1F4F1F4B204E204D214CDA
:100DE8000EEA0000086011681068414011607968D7
:100DF80057684FF40070794051609E60DD601C6157
:100E080058601A6822F060621A601A6842F4403228
:100E18001A601A6842F480621A601A6842F4006222
:100E28001A601A6842F400521A601A6842F01002F6
:100E38001A601A6822F0C0021A601A6842F00102A9
:100E48001A60F0BD0038024070600240000010F0E7
:100E58000060024000640240586002400C380040C4
:100E68002C1400206C0700208828000800000020AF
:100E780044070020480700202C180020000000002C
:100E88002DE9F843544B80461A68544882422DEDA8
:100E9800028B1BD052490B68DA0405D40A6842F465
:100EA80080530B60012000E000204E4A4E4911603B
:100EB80013684A4A934208D147490B6030B1484801
:100EC800036823F48052026000E0FEE798ED018A8F
:100ED800B5EE408A0021F1EE10FAC8F81C10C8F8E7
:100EE8001810C8F81410C8F81010C8F82810C8F856
:100EF8002410C8F8201029D0DFED3C7A28EE270A04
:100F080010EE100A00F0D4FF044618EE100A0D4641
:100F180000F0CEFF0646B8F800000F4600F0B6FF16
:100F28002BA3D3E9002301F041F902460B463046D2
:100F3800394600F05FFE02460B462046294601F07E
:100F480035F901F01BFAA8F82C0001E0A8F82C10DC
:100F580098ED028AB5EE408AF1EE10FA26D0B8F87C
:100F680000904FEA092000F091FF044618EE100A9D
:100F78000D4600F09DFF16A3D3E9002300F0ECFF17
:100F8800064648460F4600F081FF02460B463046AB
:100F9800394600F02FFE02460B462046294601F04E
:100FA80005F901F0EBF9A8F82E0002E00020A8F8F6
:100FB8002E00B8F800204FF47A73B2FBF3F1A8F8CA
:100FC8003010BDEC028BBDE8F88300BFAFF30080A2
:100FD8001F85EB51B81E194068070020CDB5E8B54C
:100FE8003038024000300240C2A507F400008043B8
:100FF8002DE9F04F9BB083461992A94A1891A94848
:101008001168814200D0FEE79E6AB3F80CC09F6960
:101018009A8DD98D039603261C6A5D6A05970692F8
:1010280006FB0CF74FEA8C0206264FEA4C000B91A0
:101038000E97052106FB0CF70F92072202940495E0
:101048000D90119701FB0CF04FEACC0602FB0CF156
:1010580000271D695C69D3F81CA01090129117969F
:101068000197188EDDF80490814580F20A818E4838
:101078009BF800601BF80C7010F80690C25DA14444
:101088008419511994F8008194F8002201EB48085A
:10109800CDF81C80DDF834801BF80860855DC71921
:1010A800A9180E9A97F800411BF8022097F80072C9
:1010B80001EB4405815C0895CC1981190F9E91F8C4
:1010C800008191F8007204EB48081BF80640CDF83F
:1010D80024808218055D92F8006192F80022E919CF
:1010E80001EB460505EB0807DDF8408015971BF86E
:1010F80008700A950419C15D94F8005194F80042EB
:10110800DDF81C808E1806EB4501119D089A1BF826
:1011180005508E18C719425D1696161997F80021C2
:1011280006EB42029044CDF85080129C97F800726A
:101138001BF804604519845DE41995F8007195F869
:101148000052801904EB47044FF01C0804EB090710
:1011580090F80061139708FB09AADDF81C800C942D
:101168000AEB0209152705EB460490F8005207FB25
:101178000890099FDDF820900A2606FB070A0F272A
:1011880007FB09A04FF00308DDF8289008FB0100D1
:101198004FF0060A0AFB0900009015984FF0300935
:1011A80009FB00FADDF858902E2000FB09A08246C2
:1011B8000598824413984FF0240909FB00AA149853
:1011C8004FF02A0909FB00AA0898DDF8249008FBCB
:1011D80000F8062000FB0988DDF81C9008EB0900E0
:1011E80007FB01010A9F0C98DDF8009006FB071821
:1011F8001C2606FB008115270B9807FB0212059297
:10120800A9F5003868B1029E049FCDF8108006EB5E
:101218000801CE1B46434FF4807296FBF2F0029011
:101228008046069961B1039E08FB01F8C1F58077F5
:1012380006FB07894FF4807299FBF2F00390804611
:10124800199901FB08F7002F02DD0837381103E070
:10125800083F102697FBF6F047F6BC72019E13492B
:10126800189FDDF85C809042A8BF1046DA89724367
:101278008842A8BF0146013627F81210C3440196D8
:10128800EFE61D615C61029D059C1D629C61039DEA
:10129800049CC3F81CA05C629D621BB0BDE8F08F83
:1012A80068070020CDB5E8B5180000204480FFFF8E
:1012B8002DE9F04FA1B0C74C1F92C74A1E91116883
:1012C800A14200D0FEE79F6A9A69998DDC8D049748
:1012D8009F89069207910F940322052106241D6A0F
:1012E8005E6A03957A4379437C431292149115946C
:1012F800072209210A24794305964FEA47084FEA4D
:1013080087097A434FEAC70A7C431E695D69D3F8A7
:101318001CB01891CDF84480CDF84C901692CDF8B9
:101328005CA01D94002102911A8E0299914280F2CC
:101338005981AA4A047812F80490A944C55D111984
:1013480012F8058091F8004191F800A2464406EB96
:101358004406119C0896045D5519165D95F800C160
:1013680095F8005206EB0A0808EB4C0ADDF84880AD
:10137800CDF824A010F80810DDF84C80565C14193C
:1013880006EB050A10F8085094F800C1565D94F869
:10139800004251180AEB4C0C361991F800A1149C24
:1013A80091F80012CDF828C006EB4A08065DCDF882
:1013B8002C80945DDDF85480551904EB010A95F8EA
:1013C800004195F800520AEB44010C9110F80810FE
:1013D8009619545C641996F8005104EB45040D9471
:1013E800169D96F80062DDF824A0DDF85C80A44420
:1013F800445DCDF86CC0155D5118AD1991F80061C8
:1014080091F8001205EB460505EB0A060E9510F853
:1014180008501C961419565DDDF860A0711894F8F0
:10142800006194F8004201EB460C08990CEB0106A8
:101438001A9610F80A605519915D9219091995F8CC
:10144800004192F8006195F8005201EB44012D2407
:1014580001EB090804FB09BB10910899CDF86480D9
:101468000BEB0C09DDF8288005EB460592F80062C5
:10147800242202FB019A152404FB08A9DDF824A004
:101488000C994FF01C0B0BFB0A994FF00A08DDF87A
:101498002CA008FB01994FF00F0B0E990BFB0A9932
:1014A8004FF00308DDF834A008FB01994FF0060B54
:1014B8000BFB0A99CDF80490DDF82CA00C994FF09D
:1014C8004B0B51440BFB01F91B994FF0490A0AFBDE
:1014D800019B0699DDF868900BEB010A4FF03F0B72
:1014E8001C990BFB09AA4FF0450BDDF864900BFB28
:1014F80001AA4FF0370B0BFB09ABDDF824A00A99C2
:1015080008FB0AF84FF00609DDF820A009FB01885E
:101518000C99D0444FF00F09DDF82CA009FB018885
:101528000A21DDF8389001FB0A884FF01C0A0D9952
:101538000AFB098804FB018A109C0F994FF02D09BA
:1015480009FB04A8DDF804A002FB0C820692AAF5A8
:101558007A3971B1039C0599CDF8149004EB09020E
:10156800541A0F9A4FF48071544394FBF1F4039486
:10157800A146079961B1049CC1F5807209FB01FC81
:1015880004FB02C94FF4807199FBF1F20492914671
:101598001F9C04FB09F1002902DD10314C1103E006
:1015A8001039202291FBF2F447F6BC718C42A8BF97
:1015B8000C46DA890299DDF874804A4308498C425E
:1015C800A8BF21461E9C24F81210029A4044511CC0
:1015D800A9E600BFCDB5E8B56807002018000020CF
:1015E8004480FFFF05981E615D61039E069D049C73
:1015F80058629D61C3F81CB01E629C62104621B0FF
:10160800BDE8F08F2DE9F04F95B0994C1392994AA7
:1016180012911168A14200D0FEE75E6A1D6A9F6AB6
:101628009A69998DB3F82E800C964FF00009D3F87B
:1016380010C05E69D3F81CB00195029709920A910F
:10164800CDF83480CDF80C908B4904780D190C5DD9
:1016580095F8007295F8008106EB070A067ACDF82E
:101668002CA08F198E5D97F8002202EB4805AC4438
:10167800057C97F80081CDF810C04A194D5D92F8A5
:10168800009292F8002109EB040A0AEB480C90F842
:1016980018A090F82090CDF814C001EB0A0494F833
:1016A800007294F80041BF1907EB420801EB0902E8
:1016B800CDF8188092F8006292F80021771907EBAC
:1016C800440606EB080C90F8288011F80A70079673
:1016D80001EB0805CDF840C095F8004295F8005197
:1016E800E619059F06EB4204E619119690F830605A
:1016F80008948C1911F8097094F80022D219049FE3
:1017080002EB4502BD180F9590F8385011F8089073
:1017180094F80041DDF82C808E5D4F1997F800A2EF
:1017280097F800710AEB090C0CEB4404DDF818A0DB
:1017380011F805C000941C2505FB082944440A211A
:10174800DDF8148001FB0A9906EB4706DDF820A0B6
:101758000F2707FB0899032101FB0A99DDF81CA054
:101768004FF0060808FB0A99DDF810A0152101FBC7
:101778000A99CB44DDF84490CDF82CB04FF02E0AEE
:101788000AFB09FADDF840904FF0300B0BFB09AA71
:101798004FF0240B0BFB04A90F9C4FF02A0A0AFBFD
:1017A800049B099CDDF81890DDF810A0A344059C63
:1017B80008FB09A8DDF820A04FF0030909FB0488FD
:1017C800079C07FB0A890A2707FB0498DDF80090A5
:1017D800DDF82CA00C9F05FB098501FB025201993D
:1017E8000992AAF500328C180D99DDF82880E51BBE
:1017F8004D434FF4807195FBF1F40194019F4446E9
:101808007C43029FC8EB010507FB054595FBF1F1F9
:101818000291139C6143002902DD0831091103E09C
:101828000839102791FBF7F147F6BC75134C129F46
:101838000C92A942A8BF2946039DA142B8BF2146E0
:1018480079530C354030C02D03957FF4FDAE0998CF
:10185800019C029D9861C3F810C05E61C3F81CB07A
:101868001C625A629D62102015B0BDE8F08F00BF5F
:10187800CDB5E8B568070020180000204480FFFFB8
:101888002DE9F04FA1B084461F92BE4A1E91BE4872
:101898001168814200D0FEE79E6A9F6905969E897D
:1018A800D98D01967000079703277E431190019800
:1018B8009A8D0F9112960521019E08924843B20015
:1018C8001490019E01980199139206277E430722DE
:1018D800C700514315961797019E019F1C6A5D6AC0
:1018E800169109220A2156434F434FF000080494E9
:1018F80006955C691D69D3F81CB018961D97CDF83C
:101908000C80188EDDF80C90814580F25A819F4931
:101918009CF80000DDF804900F181CF8096097F88F
:1019280000A297F80021085CA2448C198E5D94F8F7
:10193800008294F80041454405EB4207119D099740
:101948001CF805504A194D5D92F8007292F8008112
:101958003F18129807EB44091CF80040CDF828906E
:1019680008190C5D90F8007290F80001BF1907EB98
:101978004809DDF84C80CDF82C901CF8089001EB54
:101988000902CDF8089092F8006292F800217719C0
:10199800149E1CF80690159E07EB400801EB090001
:1019A800CDF8308090F8005290F800012F1907EB1D
:1019B80042081CF80670029DCDF83480CA194E5DA5
:1019C80092F80042A41904EB40050295DDF82C803A
:1019D800169E92F80021CF5DA844CDF86C801CF8C3
:1019E800068011F80950DDF8609001EB080011F845
:1019F800088090F8004290F8000166190A9D06EBED
:101A08004204179A0E9466191C961CF802608C19E9
:101A18008E5D94F8002294F80041D519099F05EBD2
:101A28004002D5191A951CF809504F194D5D97F8C1
:101A3800000297F80071404400EB44002D2100EBB0
:101A48000A0401FB0ABB1090099819940BEB020ACF
:101A580006EB470424210B9F01FB00A94FF0150852
:101A6800DDF828A00D9808FB07964FF01C0B0BFB20
:101A78000A69DDF830800A2606FB009A0F27DDF890
:101A8800389007FB08AB4FF0030808FB09BADDF8EC
:101A980008B0062000FB0BA9CDF80090DDF834A0B3
:101AA800DDF830B04FF04B090AEB0B0009FB00FAE8
:101AB8001B984FF0490B0BFB00A9079809EB000A8C
:101AC800DDF868901C984FF03F0B0BFB09AA4FF00C
:101AD800450BDDF864900BFB00AA4FF0370B0BFBAE
:101AE80009ABDDF828A00B9808FB0AF84FF00609A7
:101AF800DDF824A009FB00880D9808EB0A0907FB0C
:101B080000980C9FDDF83890029806FB07864FF086
:101B18001C0A0AFB0968152707FB008610980F9F07
:101B28004FF02D0909FB006A01FB02A2DDF800A0B5
:101B38000792AAF57A386FB10499069ECDF81880F5
:101B480001EB0800811B79434FF4807291FBF2F797
:101B58000497B846089860B1059908FB00F8C0F5E5
:101B6800807601FB06894FF4807299FBF2F705979E
:101B7800B8461F9800FB08F6002E09DD10367711CD
:101B88000AE000BF68070020CDB5E8B518000020BE
:101B9800103E202196FBF1F7039ED8891049DDF805
:101BA800748047F6BC729742A8BF17468F42A8BFF9
:101BB800394670431E9F721C27F81010C4440392C4
:101BC8009FE65C61079C049A9C61059E069C1D61CA
:101BD800C3F81CB01A625C629E6221B0BDE8F08F47
:101BE8004480FFFFAFF3008081F0004102E000BFB6
:101BF80083F0004330B54FEA41044FEA430594EAC5
:101C0800050F08BF90EA020F1FBF54EA000C55EAFF
:101C1800020C7FEA645C7FEA655C00F0E2804FEAD0
:101C28005454D4EB5555B8BF6D420CDD2C4480EAB2
:101C3800020281EA030382EA000083EA010180EAE2
:101C4800020281EA0303362D88BF30BD11F0004F30
:101C58004FEA01314FF4801C4CEA113102D0404266
:101C680061EB410113F0004F4FEA03334CEA1333A1
:101C780002D0524263EB430394EA050F00F0A780B9
:101C8800A4F10104D5F1200E0DDB02FA0EFC22FAB4
:101C980005F2801841F1000103FA0EF2801843FAA8
:101CA80005F359410EE0A5F120050EF1200E012A99
:101CB80003FA0EFC28BF4CF0020C43FA05F3C018D7
:101CC80051EBE37101F0004507D54FF0000EDCF150
:101CD800000C7EEB00006EEB0101B1F5801F1BD3F9
:101CE800B1F5001F0CD349085FEA30004FEA3C0CFD
:101CF80004F101044FEA445212F5800F80F09A80F3
:101D0800BCF1004F08BF5FEA500C50F1000041EBF6
:101D1800045141EA050130BD5FEA4C0C404141EBFA
:101D2800010111F4801FA4F10104E9D191F0000F21
:101D380004BF01460020B1FA81F308BF2033A3F1A4
:101D48000B03B3F120020CDA0C3208DD02F1140C9B
:101D5800C2F10C0201FA0CF021FA02F10CE002F1D6
:101D68001402D8BFC2F1200C01FA02F120FA0CFCCF
:101D7800DCBF41EA0C019040E41AA2BF01EB045118
:101D8800294330BD6FEA04041F3C1CDA0C340EDC16
:101D980004F11404C4F1200220FA04F001FA02F359
:101DA80040EA030021FA04F345EA030130BDC4F117
:101DB8000C04C4F1200220FA02F001FA04F340EA0C
:101DC8000300294630BD21FA04F0294630BD94F0BD
:101DD800000F83F4801306BF81F480110134013DA4
:101DE8004EE77FEA645C18BF7FEA655C29D094EA15
:101DF800050F08BF90EA020F05D054EA000C04BF93
:101E08001946104630BD91EA030F1EBF002100207D
:101E180030BD5FEA545C05D14000494128BF41F01C
:101E2800004130BD14F580043CBF01F5801130BD80
:101E380001F0004545F0FE4141F470014FF000000B
:101E480030BD7FEA645C1ABF194610467FEA655CBC
:101E58001CBF0B46024650EA013406BF52EA03355E
:101E680091EA030F41F4002130BD00BF90F0000F4C
:101E780004BF0021704730B54FF4806404F1320488
:101E88004FF000054FF0000150E700BF90F0000F41
:101E980004BF0021704730B54FF4806404F1320468
:101EA80010F0004548BF40424FF000013EE700BF38
:101EB80042004FEAE2014FEA31014FEA02701FBFC8
:101EC80012F07F4393F07F4F81F06051704792F09A
:101ED800000F14BF93F07F4F704730B54FF4607414
:101EE80001F0004521F0004120E700BF50EA01025F
:101EF80008BF704730B54FF000050AE050EA01020C
:101F080008BF704730B511F0004502D5404261EB7B
:101F180041014FF4806404F132045FEA915C3FF4BC
:101F2800DCAE4FF003025FEADC0C18BF03325FEA55
:101F3800DC0C18BF033202EBDC02C2F1200300FA0A
:101F480003FC20FA02F001FA03FE40EA0E0021FA2F
:101F580002F11444C1E600BF70B54FF0FF0C4CF419
:101F6800E06C1CEA11541DBF1CEA135594EA0C0FCF
:101F780095EA0C0F00F0DEF82C4481EA030621EA0A
:101F88004C5123EA4C5350EA013518BF52EA033545
:101F980041F4801143F4801338D0A0FB02CE4FF0F7
:101FA8000005E1FB02E506F00042E0FB03E54FF027
:101FB8000006E1FB03569CF0000F18BF4EF0010E1F
:101FC800A4F1FF04B6F5007F64F5407404D25FEA1B
:101FD8004E0E6D4146EB060642EAC62141EA5551CE
:101FE8004FEAC52040EA5E504FEACE2EB4F1FD0C10
:101FF80088BFBCF5E06F1ED8BEF1004F08BF5FEA8E
:10200800500E50F1000041EB045170BD06F000463F
:1020180046EA010140EA020081EA0301B4EB5C04EC
:10202800C2BFD4EB0C0541EA045170BD41F48011E4
:102038004FF0000E013C00F3AB8014F1360FDEBF09
:10204800002001F0004170BDC4F10004203C35DAE5
:102058000C341BDC04F11404C4F1200500FA05F368
:1020680020FA04F001FA05F240EA020001F0004209
:1020780021F0004110EBD37021FA04F642EB06017F
:102088005EEA430E08BF20EAD37070BDC4F10C04A9
:10209800C4F1200500FA04F320FA05F001FA04F26D
:1020A80040EA020001F0004110EBD37041F1000159
:1020B8005EEA430E08BF20EAD37070BDC4F1200564
:1020C80000FA05F24EEA020E20FA04F301FA05F2CC
:1020D80043EA020321FA04F001F0004121FA04F274
:1020E80020EA020000EBD3705EEA430E08BF20EA44
:1020F800D37070BD94F0000F0FD101F0004640007E
:1021080041EB010111F4801F08BF013CF7D041EAFF
:10211800060195F0000F18BF704703F00046520003
:1021280043EB030313F4801F08BF013DF7D043EAD4
:102138000603704794EA0C0F0CEA135518BF95EA8A
:102148000C0F0CD050EA410618BF52EA4306D1D111
:1021580081EA030101F000414FF0000070BD50EA30
:10216800410606BF1046194652EA430619D094EABA
:102178000C0F02D150EA013613D195EA0C0F05D1A4
:1021880052EA03361CBF104619460AD181EA0301F8
:1021980001F0004141F0FE4141F470014FF00000B0
:1021A80070BD41F0FE4141F4780170BD70B54FF04B
:1021B800FF0C4CF4E06C1CEA11541DBF1CEA1355CB
:1021C80094EA0C0F95EA0C0F00F0A7F8A4EB0504AD
:1021D80081EA030E52EA03354FEA013100F08880A4
:1021E8004FEA03334FF0805545EA131343EA12636D
:1021F8004FEA022245EA111545EA10654FEA002622
:102208000EF000419D4208BF964244F1FD0404F5DA
:10221800407402D25B084FEA3202B61A65EB030536
:102228005B084FEA32024FF480104FF4002CB6EBF3
:10223800020E75EB030E22BFB61A754640EA0C0073
:102248005B084FEA3202B6EB020E75EB030E22BFB3
:10225800B61A754640EA5C005B084FEA3202B6EBF4
:10226800020E75EB030E22BFB61A754640EA9C00B3
:102278005B084FEA3202B6EB020E75EB030E22BF83
:10228800B61A754640EADC0055EA060E18D04FEA41
:10229800051545EA16754FEA06164FEAC30343EAE1
:1022A80052734FEAC2025FEA1C1CC0D111F4801FAE
:1022B8000BD141EA00014FF000004FF0004CB6E7A7
:1022C80011F4801F04BF01430020B4F1FD0C88BF46
:1022D800BCF5E06F3FF6AFAEB5EB030C04BFB6EB51
:1022E800020C5FEA500C50F1000041EB045170BD44
:1022F8000EF0004E4EEA113114EB5C04C2BFD4EB71
:102308000C0541EA045170BD41F480114FF0000EF4
:10231800013C90E645EA060E8DE60CEA135594EA70
:102328000C0F08BF95EA0C0F3FF43BAF94EA0C0F73
:102338000AD150EA01347FF434AF95EA0C0F7FF4E8
:1023480025AF104619462CE795EA0C0F06D152EA3C
:1023580003353FF4FDAE1046194622E750EA410620
:1023680018BF52EA43067FF4C5AE50EA41047FF431
:102378000DAF52EA43057FF4EBAE12E74A0011D2E3
:1023880012F5001211D20DD56FF47873B3EB6252C7
:102398000ED44FEAC12343F0004343EA505323FAD3
:1023A80002F070474FF00000704750EA013002D148
:1023B8004FF0FF3070474FF0000070472DE9F04FA5
:1023C8004B4B4C4C4C485C600122ADF2044D4FF431
:1023D8007A511980DA819A8198600DF2FE31ADF157
:1023E8000203002223F8022F8B42FBD1FEF7E0FC08
:1023F8005B20FEF777F94FF4FA40FEF779FC3F4A85
:102408003B48136B3E4CDFF818913E4DDFF81481C2
:102418003D4E43F480531363FEF732FD3B4A938BE2
:102428009BB243F4806393832746394B38499B68B2
:10243800364A43F000638B60364B1B6843F0010358
:102448008B651389D907FCD5334B1A8852BA23F800
:10245800022BA342F9D3DFF8C0A0EB4650465946F9
:102468000AF1800A1E22224BFEF7C2FDBA450BF183
:10247800200BF3D1D8F8003023F00103C8F800305E
:102488000120002308E009F803B00233802B09F883
:1024980000A000F1020017D03DF813203F2B91B2A5
:1024A8004FEA112B5FFA82FAA3F1400CA3F13F0E19
:1024B800E9D90233090AD2B2802B05F80C1000F1D1
:1024C800020005F80E20E7D1D8F8003043F00103E8
:1024D800C8F8003033881A06FCD510494B680F4AF3
:1024E8001B01FBD5D36843F00063D3609DE700BFB1
:1024F800AC0B00200000FA450000204100380240E3
:102508002C1800206C0B00200010014000380040FF
:1025180000600240586002402C1400200064024011
:10252800E00B0020B8640240002103E00B4B5B582D
:10253800435004310A480B4B42189A42F6D30A4AD0
:1025480002E0002342F8043B084B9A42F9D3FDF716
:102558007FFE00F01FF8FFF731FF7047882800085A
:102568000000002044070020480700202C18002005
:10257800FEE7000008B50021044600F08BF8044B84
:102588001868C36B03B19847204600F06FF900BF85
:102598005428000870B50F4E0F4D761BB61018BFA3
:1025A800002405D0013455F8043B9847A642F9D1D8
:1025B8000A4E0B4D761B00F04DF9B61018BF0024DB
:1025C80006D0013455F8043B9847A642F9D170BDAE
:1025D80070BD00BF7C2800087C28000884280008FB
:1025E8007C28000870B4840746D0541E002A41D0C5
:1025F800CDB2034602E0621EE4B3144603F8015B61
:102608009A07F8D1032C2ED9CDB245EA05250F2C0F
:1026180045EA054519D903F110022646103E0F2E4A
:1026280042F8105C42F80C5C42F8085C42F8045C22
:1026380002F11002F2D8A4F1100222F00F0204F005
:102648000F041032032C13440DD91E462246043AB7
:10265800032A46F8045BFAD8221F22F00302043248
:10266800134404F003042CB1C9B21C4403F8011B41
:10267800A342FBD170BC704714460346C2E700BFB3
:10268800024B13B1024800F06FB870470000000019
:102698007D2700082DE9F04F314B83B01B6800936C
:1026A80003F5A47381460E460193009BD3F8487145
:1026B80027B3DDF804A07C68651E0ED4013407EB4F
:1026C80084044FF00008E6B1D4F80031B34218D0C2
:1026D800013D6B1CA4F10404F5D1224B73B17B6856
:1026E800002B36D13B68002B34D03846CAF800306E
:1026F800AFF30080DAF80070002FDCD103B0BDE83A
:10270800F08F7B682268013BAB420CBF7D60C4F848
:102718000080002ADCD0D7F88831D7F804B001212E
:10272800A940194208D190477B685B45BDD1DAF8CA
:102738000030BB42CCD0B8E7D7F88C31194204D16D
:102748004846D4F880109047EEE7D4F880009047C8
:10275800EAE73B68BA461F46002FACD1CEE700BF78
:1027680054280008000000000146002002460346E5
:1027780000F016B838B5084B084DED1AAC1018BF64
:10278800ED1805D0013C55F8043D9847002CF9D1C7
:10279800BDE8384000F064B884280008882800089C
:1027A8002DE9F047254C2568D5F848410646884666
:1027B80092469946CCB360681F2818DC431C7EB14A
:1027C80004EB80050121C5F888A0D4F8887101FAC6
:1027D80000F21743022EC4F88871C5F808911ED07C
:1027E8000230636044F820800020BDE8F087144B75
:1027F80003B34FF4C870AFF300800446D0B1D5F8E6
:102808004831002780E88800C5F848413846012348
:10281800C4F88871C4F88C71002EE1D0D0E7D4F8E0
:102828008C110A43C4F88C21DAE705F5A674C5F8BB
:102838004841C0E74FF0FF30BDE8F0875428000852
:1028480000000000FEE700BF43000000180300205E
:1028580000000000F8B500BFF8BC08BC9E467047F1
:0C286800F8B500BFF8BC08BC9E467047E5
:0828740070D9FF7F0100000094
:08287C0089260008AD010008E7
:0428840089010008BE
:102888000000000000000000000000000102030436
:1028980006070809007A030A00000101030304047B
:1028A8000606070709090A0A0A0A0B0B0D0D0E0E80
:1028B80010101111131314140F0F101012121313F8
:1028C800151516161818191919191A1A1C1C1D1D70
:1028D8001F1F202022222323151516161818191930
:1028E8001B1B1C1C1E1E1F1F1F1F202022222323F0
:1028F8002525262628282929242425252727282868
:102908002A2A2B2B2D2D2E2E2E2E2F2F31313232DF
:1029180034343535373738381C1C1D1D1F1F20200F
:1029280022222323252526262626272729292A2A3F
:102938002C2C2D2D2F2F30302B2B2C2C2E2E2F2FB7
:10294800313132323434353535353636383839392F
:102958003B3B3C3C3E3E3F3F3131323234343535EF
:10296800373738383A3A3B3B3B3B3C3C3E3E3F3FAF
:102978004141424244444545404041414343444427
:102988004646474749494A4A4A4A4B4B4D4D4E4E9F
:1029980050505151535354540012152717292C3EA7
:1029A800182A2D3F2F414456182A2D3F2F414456AF
:1029B8003042455747595C6E17292C3E2E404355E7
:1029C8002F41445646585B6D2F41445646585B6D1F
:1029D80047595C6E5E70738515272A3C2C3E41531F
:1029E8002D3F42544456596B2D3F42544456596B1F
:1029F80045575A6C5C6E71832C3E41534355586A57
:102A08004456596B5B6D70824456596B5B6D70828E
:102A18005C6E71837385889A12242739293B3E504E
:102A28002A3C3F51415356682A3C3F51415356680E
:102A380042545769596B6E80293B3E504052556746
:102A480041535668586A6D7F41535668586A6D7F7E
:102A5800596B6E807082859727393C4E3E5053657E
:102A68003F51546656686B7D3F51546656686B7D7E
:102A780057696C7E6E8083953E50536555676A7CB6
:102A880056686B7D6D7F829456686B7D6D7F8294EE
:102A98006E80839585979AAC001C15310F2B2440C6
:102AA8000A261F3B19352E4A06221B3715312A469E
:102AB800102C25411F3B3450031F1834122E274376
:102AC8000D29223E1C38314D09251E3A18342D494E
:102AD800132F2844223E3753011D1632102C25414E
:102AE8000B27203C1A362F4B07231C3816322B474E
:102AF800112D2642203C355104201935132F284426
:102B08000E2A233F1D39324E0A261F3B19352E4AFD
:102B180014302945233F3854001C15310F2B24400D
:102B28000A261F3B19352E4A06221B3715312A461D
:102B3800102C25411F3B3450031F1834122E2743F5
:102B48000D29223E1C38314D09251E3A18342D49CD
:102B5800132F2844223E3753011D1632102C2541CD
:102B68000B27203C1A362F4B07231C3816322B47CD
:102B7800112D2642203C355104201935132F2844A5
:102B88000E2A233F1D39324E0A261F3B19352E4A7D
:102B980014302945233F3854000000000406002063
:102BA8006C060020D4060020000000000000000091
:102BB800000000000000000000000000000000000D
:102BC800000000000000000000000000502800087D
:102BD80000000000000000000000000000000000ED
:102BE80000000000000000000000000000000000DD
:102BF80000000000000000000000000000000000CD
:102C080000000000000000000000000000000000BC
:102C180000000000000000000000000000000000AC
:102C2800000000000000000000000000000000009C
:102C3800000000000000000000000000000000008C
:102C480001000000000000000E33CDAB34126DE629
:102C5800ECDE05000B000000000000000000000092
:102C6800000000000000000000000000000000005C
:102C7800000000000000000000000000000000004C
:102C8800000000000000000000000000000000003C
:102C9800000000000000000000000000000000002C
:042FC80018030020CA
:042FCC000000000001
:040000050800253199
:00000001FF
